:020000040000fa
:080000000002040000000000f2
:020000040000fa
:04000800b40300003d
:020000040000fa
:04000c00b403000039
:020000040000fa
:04001000b403000035
:020000040000fa
:04001400b403000031
:020000040000fa
:04001800b40300002d
:020000040000fa
:04001c00b403000029
:020000040000fa
:04002000b403000025
:020000040000fa
:04002400b403000021
:020000040000fa
:04002800b40300001d
:020000040000fa
:04002c00b403000019
:020000040000fa
:04003000b403000015
:020000040000fa
:04003400fa020000cc
:020000040000fa
:04003800b40300000d
:020000040000fa
:04003c00b403000009
:020000040000fa
:04004000b403000005
:020000040000fa
:04004400b403000001
:020000040000fa
:040048001a03000097
:020000040000fa
:04004c00b4030000f9
:020000040000fa
:04005000b4030000f5
:020000040000fa
:04005400b4030000f1
:020000040000fa
:04005800b4030000ed
:020000040000fa
:04005c00900300000d
:020000040000fa
:04006000b4030000e5
:020000040000fa
:04006400b4030000e1
:020000040000fa
:04006800b4030000dd
:020000040000fa
:04006c00b4030000d9
:020000040000fa
:04007000b4030000d5
:020000040000fa
:04007400b4030000d1
:020000040000fa
:04007800b4030000cd
:020000040000fa
:04007c00b4030000c9
:020000040000fa
:04008000b4030000c5
:020000040000fa
:04008400b4030000c1
:020000040000fa
:04008800b4030000bd
:020000040000fa
:04008c00b4030000b9
:020000040000fa
:04009000b4030000b5
:020000040000fa
:040094006403000001
:020000040000fa
:04009800b4030000ad
:020000040000fa
:04009c00b4030000a9
:020000040000fa
:0400a000b4030000a5
:020000040000fa
:0400a400b4030000a1
:020000040000fa
:0400a800b40300009d
:020000040000fa
:0400ac00b403000099
:020000040000fa
:0400b000b403000095
:020000040000fa
:0400b400b403000091
:020000040000fa
:0400b800b40300008d
:020000040000fa
:0400bc00b403000089
:020000040000fa
:0400c000b403000085
:020000040000fa
:0400c400b403000081
:020000040000fa
:0400c800b40300007d
:020000040000fa
:0400cc00b403000079
:020000040000fa
:0400d000b403000075
:020000040000fa
:0400d400b403000071
:020000040000fa
:0400d800b40300006d
:020000040000fa
:0400dc00b403000069
:020000040000fa
:0400e000b403000065
:020000040000fa
:0400e400b403000061
:020000040000fa
:0400e800b40300005d
:020000040000fa
:0400ec00b403000059
:020000040000fa
:0400f000b403000055
:020000040000fa
:0400f400b403000051
:020000040000fa
:0400f800b40300004d
:020000040000fa
:0400fc00b403000049
:020000040000fa
:04010000b403000044
:020000040000fa
:04010400b403000040
:020000040000fa
:04010800b40300003c
:020000040000fa
:04010c00b403000038
:020000040000fa
:04011000b403000034
:020000040000fa
:04011400b403000030
:020000040000fa
:04011800b40300002c
:020000040000fa
:04011c00b403000028
:020000040000fa
:04012000b403000024
:020000040000fa
:04012400b403000020
:020000040000fa
:04012800b40300001c
:020000040000fa
:04012c00b403000018
:020000040000fa
:04013000b403000014
:020000040000fa
:04013400b403000010
:020000040000fa
:04013800b40300000c
:020000040000fa
:04013c00b403000008
:020000040000fa
:04014000b403000004
:020000040000fa
:04014400b403000000
:020000040000fa
:04014800b4030000fc
:020000040000fa
:04014c00b4030000f8
:020000040000fa
:04015000b4030000f4
:020000040000fa
:04015400b4030000f0
:020000040000fa
:04015800b4030000ec
:020000040000fa
:04015c00b4030000e8
:020000040000fa
:04016000b4030000e4
:020000040000fa
:04016400b4030000e0
:020000040000fa
:04016800b4030000dc
:020000040000fa
:04016c00b4030000d8
:020000040000fa
:04017000b4030000d4
:020000040000fa
:04017400b4030000d0
:020000040000fa
:04017800b4030000cc
:020000040000fa
:04017c00b4030000c8
:020000040000fa
:04018000b4030000c4
:020000040000fa
:04018400b4030000c0
:020000040000fa
:04018800b4030000bc
:020000040000fa
:04018c00b4030000b8
:020000040000fa
:04019000b4030000b4
:020000040000fa
:04019400b4030000b0
:020000040000fa
:04019800b4030000ac
:020000040000fa
:04019c00b4030000a8
:020000040000fa
:0401a000b4030000a4
:020000040000fa
:0401a400b4030000a0
:020000040000fa
:0401a800b40300009c
:020000040000fa
:0401ac00b403000098
:020000040000fa
:0401b000b403000094
:020000040000fa
:0401b400b403000090
:020000040000fa
:0401b800b40300008c
:020000040000fa
:0401bc00b403000088
:020000040000fa
:0401c000b403000084
:020000040000fa
:0401c400b403000080
:020000040000fa
:0401c800b40300007c
:020000040000fa
:0401cc00b403000078
:020000040000fa
:0401d000b403000074
:020000040000fa
:0401d400b403000070
:020000040000fa
:0401d800b40300006c
:020000040000fa
:0401dc00b403000068
:020000040000fa
:0401e000b403000064
:020000040000fa
:0401e400b403000060
:020000040000fa
:0401e800b40300005c
:020000040000fa
:0401ec00b403000058
:020000040000fa
:0401f000b403000054
:020000040000fa
:0401f400b403000050
:020000040000fa
:0401f800b40300004c
:020000040000fa
:0401fc00b403000048
:020000040000fa
:04020000b403000043
:020000040000fa
:04020400b40300003f
:020000040000fa
:04020800b40300003b
:020000040000fa
:04020c00b403000037
:020000040000fa
:04021000b403000033
:020000040000fa
:04021400b40300002f
:020000040000fa
:04021800b40300002b
:020000040000fa
:04021c00b403000027
:020000040000fa
:04022000b403000023
:020000040000fa
:04022400b40300001f
:020000040000fa
:04022800b40300001b
:020000040000fa
:04022c00b403000017
:020000040000fa
:04023000b403000013
:020000040000fa
:04023400b40300000f
:020000040000fa
:04023800b40300000b
:020000040000fa
:04023c00b403000007
:020000040000fa
:04024000b403000003
:020000040000fa
:04024400b4030000ff
:020000040000fa
:04024800b4030000fb
:020000040000fa
:04024c00b4030000f7
:020000040000fa
:04025000b4030000f3
:020000040000fa
:04025400b4030000ef
:020000040000fa
:04025800b4030000eb
:020000040000fa
:04025c00b4030000e7
:020000040000fa
:04026000b4030000e3
:020000040000fa
:04026400b4030000df
:020000040000fa
:10040000af0421000eff2d000e0188000000000047
:10041000000020000000e000020032000001200087
:100420002002880014000700d10007000000e0004f
:1004300003003a0000702100010020000200370094
:100440000000200001002000810f70000100320038
:100450000f000700000020000000e0000200320052
:100460000000020000000000020c0200000000007a
:100470000040da000000fe00200020000000e00044
:1004800002003200100020009001880000000600e9
:10049000a1028800800478000000eb001f003700f4
:1004a000e284440054a0b4009905ba00e2844400f8
:1004b00054a0b4009906ba00e284440054a0b400e9
:1004c0000006eb00476fde00fd07b200ae018800ba
:1004d000636ce10003003a000ad801000000eb0061
:1004e0000e003700606ce10008003a00004deb00a0
:1004f0000a05e800020039003420ec000af0a000f0
:100500008b05e900f9ff3e00040037006168e10057
:10051000010032000086eb000b00070019c7ba008b
:100520000e04e0001905ba0003003a000a00e000da
:10053000dbff3a0000000600fe07b200ae028800b2
:100540008a047800f5ff37000cd0a300e20f4d00bd
:100550001c003b0089027800354dba000a05e8000e
:10056000020039003420ec000af0a0008b05e900fd
:100570000f003200254dba000a05e80002003900dc
:100580003420ec000af0a0008b05e90008003200de
:100590000c00e0000600320015cdba000a05e800a4
:1005a000020039003420ec000af0a0008b05e900bd
:1005b0008984e80054a0b4000b00e000e2ff3a0098
:1005c000000006009902ba00055d78008b05e9007d
:1005d000f7ff3200c82ade00055d78008b05e900d0
:1005e000f3ff32000c00e000f1ff320019ddba0029
:1005f000eeff37003600f800809fbe00829fbe00ed
:10060000849fbe00869fbe000000fa000068a9001b
:10061000c9090700eb0707000080fa004f03be007e
:100620004f02be004f01be004f00be003600f90071
:10063000004006003600f800809fbe00829fbe008a
:10064000849fbe00869fbe000000fa000108a9003a
:1006500021748000000220000080600000f0a700ec
:100660000000ea000000e9004f00de0000407800d2
:100670000080fb00610060004500dd002174800007
:100680000150a100010070002074880012c0b30066
:1006900000002000011f2c00b607070022c0b30095
:1006a00000002000011f2400b20707000080fa00ac
:1006b0004f03be004f02be004f01be004f00be0000
:1006c0003600f900004006003600f800809fbe00aa
:1006d000829fbe00849fbe00869fbe000000fa007d
:1006e0000368a90080808000918080006100400044
:1006f000e080480080808800918088008e09070093
:100700000e0507000080fa004f03be004f02be0036
:100710004f01be004f00be003600f9000040060049
:10072000801f78000000fa0001a8a90000188000ce
:100730000082880010188000108288002018800035
:1007400020828800301880003082880040188000a5
:100750004082880010c0b30017f0b7000080fa0094
:100760004f007800004006000040da000000fe0064
:100770000000050014002000aa033700f4ff2f003a
:10078000a80337000001be003c0007000470a7006a
:1007900003f0a1006509b100160032000d0035001c
:1007a0006828e10006003500f0ff2f00f1ff270068
:1007b0000300e00013003b000100280000000500da
:1007c00000004000818048008502e900fcff3a00fb
:1007d00008003700f88f420002003c008000eb0068
:1007e000000005008100d1000080d3008502e800f0
:1007f000fcff3a000300e00002003b006000100034
:10080000e0801800000006000001be001b00070089
:100810000470a70003f0a10003f8a30013003a003e
:100820006509b10010003200090035006928e100b7
:100830000200350001002800000005000000400013
:10084000818048008502e900fcff3a0000000600b4
:10085000f88f4200050035008100d1000080d300f0
:100860008502e800fcff3a00000006008000eb0073
:10087000000005006011b80085033700c70ade00dc
:10088000f107b200f50fb20008003200e1cf4200dc
:10089000020032000170a00024000500810f7000ea
:1008a000010032000408050044000500810f7000bb
:1008b00002003a00140005008502e9000000400033
:1008c00081c04800fcff3b000170a000240005002f
:1008d00007f82700078361000638e10004003a00aa
:1008e000f7072000878361008703710001003a0049
:1008f00003f0a200889fbe008a9fbe008c9fbe00ae
:10090000470ade000480a100c71ade000580a100ae
:10091000070028000785600087856100f70f200029
:100920000720e1009e0032000728e1009c00320011
:10093000010678000400e000b4003200f707200050
:10094000878060000170a0000500e000c000320058
:10095000f7072000878161000370a00005065200a0
:100960000f003a000b50e1000b0032000308e100d9
:1009700002003a000200e1007e0032000204500052
:1009800083845800040031000001fd008101fd0056
:100990008402fd008a05fd006044b8002100370094
:1009a0000520e10005003d000001fd008101fd0082
:1009b0008402fd008a05fd00050652007a60e10010
:1009c000050035000170a1004722dd008480700021
:1009d0008a807000630037006044b800ef02660050
:1009e00007ff2f00070666000500e0000600340040
:1009f000f08312008714dd000511de00071bdd0007
:100a0000060171008519de007060e1000500350007
:100a10000904780082047800030178008001eb006b
:100a2000700656000b50e10003003a00020040003f
:100a3000838048000400370060041400e0841c0038
:100a400002005800838058000188a300060032008d
:100a50008100d1000080d3008984d3000884d300b2
:100a60000402e800270037000178a30025003a00bf
:100a70000100e000030032008186cf006986560045
:100a80000a0037008c0020000000e00004003a005b
:100a900009007800880478000004eb00700252001e
:100aa0008086cf000d0646000c06e9007060e1006c
:100ab000060035008000780009007800880478007e
:100ac0000004eb0070065600700252000c00e000bb
:100ad0000c0034008c08dd00f00316000703de0074
:100ae000868070000c00dd00074bde000600700001
:100af0008c4cdd000743de00868474000c44dd006e
:100b00000c0252006120e10020003500610160000c
:100b10000700280087816400f7ff270087836400af
:100b2000070374000300e000060032008203730034
:100b3000040032000000e800e08048000188a300c3
:100b40000e003a00f70f20000720e1004a003d00a8
:100b50000170a1004722dd00810072008a807000d0
:100b60000000be004f06be004f05be004f04be0091
:100b7000000006006000b800faff37008100d100d5
:100b80000080d3000402e800eeff37000401780083
:100b900089017400a10107008a807000f1ff37000d
:100ba000f7010700070278000001fd008101fd0048
:100bb000f301070087027800850372000778a3001d
:100bc000040032000001fd008101fd000602070063
:100bd000e4ff3700850362000768a30008003200c5
:100be0000b50e10003003200f0ff2f00f1ff27005f
:100bf000dcff37000001fd008101fd00d9ff370057
:100c00000468a300d7ff3200faff3700f8ff27007f
:100c1000888360000b003a000000e00009003a0001
:100c20008303640082837300020032000200be006e
:100c3000ccff37000b50e100ceff3a000200be00af
:100c4000c8ff370014002000810064003eff370019
:100c5000f8ff27008883610004003a000200e000ea
:100c600002003a008c007800beff3700150020001b
:100c70008301640039ff370001f8270000002000dd
:100c800081007500b7ff3700889fbe008a9fbe00b5
:100c90008c9fbe001b0020000202be00058668007b
:100ca00006002800060666004709de00f20fb200c3
:100cb000820032000243e80080003200c729de00d3
:100cc000f30fb2007d0032000343e8007b003200e6
:100cd000f107b2000170a000f507b2000570a00096
:100ce000c708dd004903de00868070004700dd0094
:100cf000c72add004923de00868272004722dd001c
:100d0000030551000403500085835800030031009f
:100d100000004000818048000a05e9008c1f78002f
:100d20008a9fbe00040050008580580004024200e3
:100d300085824a0000004000818048000005eb00e9
:100d40000004be006033b8000406be000d48e10098
:100d500056003100110009004dccd8000c01b8003c
:100d60000d02b8008481410060824a0082835300f2
:100d700003045c0084845c0060055d000a00e00000
:100d800025003a00800578000d40e100490031005f
:100d90008800780007007800110009004d88d8000d
:100da0000c01b8000d02b8008481410060824a0045
:100db0006003110083835b0004045c00e0845c003a
:100dc0000900e00021003a004f01be000300e000ee
:100dd0002b003200e3016000070673008c81710074
:100de00001003200640070004200de004e5edd0053
:100df0000c007000c258de0001e0a0008301070073
:100e0000cf017800818071004f06be004f05be0003
:100e10004f04be00000006008c8343000d044c000c
:100e2000e0844c0060054d000000e9000a00e0008d
:100e3000d4ff32008c8343000d044c00e0844c004e
:100e400060054d000000e900ceff37000c034300b1
:100e50008d834b0060044c00e0844c000000e900ee
:100e60000900e000d8ff32000c0343008d834b00e3
:100e700060044c00e0844c000000e900d2ff370021
:100e80004200de004e5edd000c007000c258de0045
:100e900001e0a000cf0178000300e000daff32009b
:100ea00060001000e0801800d7ff3700f0ff2f002f
:100eb000aaff3700f0ff2f00b9ff37000404be007f
:100ec0002f010700870678000004fd008104fd0063
:100ed0002b010700078366000678a3000300320099
:100ee0000960a7000800be002c0037000d78a300a1
:100ef000020032000800be00280037000778a30077
:100f000026003a0001f0a10009f0a1000668a30044
:100f100003003200f1ff2700f0ff2f00baff370077
:100f20000d68a300030032000800be008c80700032
:100f3000b5ff37000768a30007003a000648a30082
:100f400003003200f1ff2700f0ff2f00aeff370053
:100f50000d48a300030032006000b8008c807000d0
:100f6000a9ff37000748a3000400320001f827005a
:100f7000000020008c807000a3ff3700760107007e
:100f80000004fd008104fd000205780072010700e5
:100f90000802be008a01780059ff37000160a000f6
:100fa00012022000c280880097ff37000100e00095
:100fb000120032000500e00010003200889fbe00e1
:100fc0008a9fbe008c9fbe000006eb0001f8a300c4
:100fd0000300320060001000e08018000cf0a00058
:100fe00005f8a3000300320060021200e0821a003c
:100ff0000cf0a2008005eb0041ff37006000b80054
:10100000020005000383680007002800070363004f
:10101000470ade000480a100c71ade000580a10097
:10102000f70f20000720e100420032000728e1000e
:1010300040003200889fbe008a9fbe008c1f78004f
:10104000f107b200f307b2000400e00064003200d0
:101050000170a0000500e000680032000370a000ed
:1010600085054200eb07b1000204b8000302b80096
:101070008484440060854a00020ab80084844400e5
:101080000a854a00030ab80004054500040033003d
:101090000804d0008984d2000a85d2008b05e900bb
:1010a0006158e1003d003500021020000901610097
:1010b0000308200089816100f7072000878364000e
:1010c00008867300c84cde00c853dd0087847400b6
:1010d0004855de000300e00006003200820376007f
:1010e000040032008904e80060054d000a88a3006e
:1010f0000c003a00f70f20000758e10044003d00c3
:101100000a70a100c75ddd000a8575008a007300c2
:10111000090078004f0678004f05be004f04be005e
:10112000000006000a05d1008984d3008b05e80081
:10113000f0ff3700881f7800060478009000070051
:10114000070278000001fd008101fd008c0007000e
:1011500087027800850372000778a300050032003b
:101160000001fd008101fd009f0007004f04780091
:1011700000000600850372000748a3000300320048
:10118000f0ff2f00f1ff2700f8ff370000002000dc
:1011900001f8270088807000f4ff3700880178008c
:1011a0004848dd00808171004848de00c850dd00fd
:1011b00001007000c850de00060478000b017800c2
:1011c0001600070088807000d2ff37000500e0009d
:1011d00005003200170020003a0007009dff37008d
:1011e00081037000f9ff3a00860078004f0678000e
:1011f0004f05be004f04be000000050083037100d0
:10120000f9ff3200270020002e00070094ff37006e
:1012100001f8270086807000f4ff37000100e0002d
:1012200026003200610111007810e10023003c002b
:101230006022b8007010e1000400350080027800e0
:10124000010078008000eb00700151000200e00016
:101250000900340070031100062add00822ade0036
:101260008603dd00878272000200de00860bdd004f
:10127000070070008208de0084817100f4ff2700ff
:10128000048262008481710004002800848262006c
:101290006102600005f0a6000000060004827100f3
:1012a000070032000000e800e0804800000006006f
:1012b0000002be006000b800efff37006000b80019
:1012c00000000600889fbe000004eb006138e100ca
:1012d00016003a000100e00008003a00c800de00f5
:1012e0004800dd00880020000100e00003003a0013
:1012f000c800de004800dd00680444008184cf009f
:10130000e9845400060034008908dd00f0831400ed
:101310008703de00878070000900dd0009044400b7
:10132000610214004f04be00000006000300e0004c
:1013300008003a00c811de004811dd0088002000d6
:101340000300e00003003a00c811de004811dd0090
:10135000680444008384cf00e9845400060034000c
:101360008919dd00f08314008713de008781710086
:101370000911dd0009044400e1021400e9ff37000f
:101380002700200001f0a70017002000470bde0017
:10139000f60fb200040032000643e8000a003200f3
:1013a0004702b3000000060001037800f607b20010
:1013b0000603700002003a000703b30000000600b5
:1013c0008702b3000000060001037800f607b200b0
:1013d00006037000020032000770a0000000060043
:1013e0000760a000000006000478a300040032009b
:1013f0000578a300030032000168a30001003a0051
:101400000200be000160a000000006008101700023
:10141000270032008002eb0001f8a3000300320035
:1014200060001000e080180015002000f407200084
:101430000202420020003400f7032000870360000e
:101440000604200000036300020820000001610080
:101450004700de00c909dd0000807100c708de001a
:101460000600e00008003200870371000600320029
:101470001000b0000180b0000188a300020032001b
:10148000c108de000402e800f107b200f30f2000fb
:101490000320e10003003d004722dd0081007200cf
:1014a0002900370001f827000000eb002600370074
:1014b0006000b80000000600680212007f20e10012
:1014c000020034006000b8001f0037006011b8004f
:1014d0007020e100040035008001780001007800f0
:1014e0008000eb00700252000400e00009003400ac
:1014f000f00312000719dd008419de000703dd0088
:10150000868171000400de00070bdd00060070001c
:101510008408de00f7ff27008383630087037100e0
:101520000600280003036300070032000700e00004
:1015300003003a0061016000028173000200320082
:101540001000b0000180b0000500a60000000600f9
:1015500001f0a000000006004f0ade004709de008f
:10156000f107b200f20fb2000b003200f207b10037
:101570000170a000c708dd00c901de008380700093
:101580004700dd000400a600000006006000100017
:10159000e080180000000600810f700001003a0092
:1015a000000006008182cf000500e00010003e0030
:1015b0008082cf00ee8242007028e10004003900f2
:1015c00007003e00800078000000eb000e003700ae
:1015d000708312008600de000500dd000a0037007f
:1015e000708352008600dd000000eb00060037002b
:1015f000e28252008508dd00708312000603de00df
:10160000868070000500dd007507b0000501ea0066
:101610000400a6000000060060001000e080180032
:1016200000000600889fbe008a9fbe00841f7800cd
:101630006c0007004f00780011003300f0ff2f000e
:10164000838f6c0006003b00040565000a00a700bc
:101650000800370009f0a60010002000080037003d
:10166000820f5400838f5c000300390010002000bb
:1016700001003e000000200009f0a7000000ea0081
:101680004f05be004f04be000000e0000000060051
:10169000889fbe008a9fbe00008270000402710015
:1016a00004827100260032000004be000200be0069
:1016b0006011b8006b092000950220000182cf0064
:1016c0000a0039000541b1000082cf00070039004f
:1016d0000541b1000982cf00040039000541b10085
:1016e0000882cf00010039000541b10005425200d7
:1016f000120032000a003b00828171006101640027
:101700008100d1000080d3008984d3000884d300f5
:101710008b05e8000442e800f7ff3a0007003700b5
:101720000804440089844c0000004800818048007f
:101730008b05e9000442e900f9ff3a0003000700c5
:101740004f05be004f04be000000060081002000cf
:10175000618055000b003d000b00200061fe2f0052
:101760000100e1001d00340082817100610164000c
:101770008904d1000884d3000000e800faff3a0091
:10178000710020006100640003007000020060002e
:101790000900320061044400e0844c000988a5007f
:1017a000050032008b05e8006808e10002003a00fd
:1017b0008904d1000884d300f20f20000258e10010
:1017c00005003d00c75ddd00f907b20089807500a6
:1017d00008007800000006000bf827008b00780056
:1017e000000005000004be0024fc07000003be004a
:1017f0000405be000200be0020fc0700844f7500f7
:0418000000000600de
:020000040000fa
:101804000600fa00881f7800c50407005905070080
:1018140084cea80084aea800848ea800856ea8009b
:10182400754ea8001f0207002902070041020700a5
:10183400350307000505070001003700000000001c
:1018440044050700e14f5000fcff3a00450507003e
:101854003c050700000f78001e80e80010007800a7
:101864008000eb0002fc0700323323003305240020
:10187400e3fd0700020020000358240001fd0700d7
:1018840010079800210798001e019000ae019000f7
:101894000000200081202400fafc070032332300da
:1018a4003305240009fc0700a0818800b181880069
:1018b4009e00780064804000100078008000eb00f7
:1018c400ebfb07003233230033052400ccfd070073
:1018d4000200200003582400eafc070010079800c7
:1018e400210798001e019000ae0190000000200026
:1018f40081202400e3fc0700323323003305240055
:10190400f2fb070080818800918188009e007800a6
:1019140066804000100078008000eb00d4fb0700d4
:101924003233230033052400b5fd070002002000f4
:1019340003582400d3fc07001007980021079800df
:101944001e019000ae0190000000200081202400c0
:10195400ccfc07003233230033052400dbfb0700f3
:1019640060818800718188009e0078006880400052
:10197400100078008000eb00bdfb07003233230029
:10198400330524009efd07000200200003582400b4
:10199400bcfc070010079800210798001e01900066
:1019a400ae0190000000200081202400b5fc070057
:1019b4003233230033052400c4fb0700c0818800b0
:1019c400d18188001e007800100078008000eb00b0
:1019d400a7fb0700323323003305240088fd0700ea
:1019e4000200200003582400a6fc070010079800fa
:1019f400210798001e019000ae0190000000200015
:101a0400812024009ffc0700323323003305240087
:101a1400aefb0700e0818800f181880080818000ae
:101a24009181800018c0b30002002000031f24002d
:101a340051fb07000000e00001003d000044eb0002
:101a44000804e00002003200848ea900010037007f
:101a5400848ea800a0818000b181800018c0b300ea
:101a640002002000031f240043fb07000000e000e5
:101a740001003d000044eb000804e00002003200d5
:101a840084aea9000100370084aea800e081800084
:101a9400f181800018c0b30002002000031f24005d
:101aa40035fb07000000e00001003d000044eb00ae
:101ab4000804e0000200320084cea90001003700cf
:101ac40084cea800608180007181800018c0b300ba
:101ad40002002000031f240027fb07000000e00091
:101ae40001003d000044eb000804e0000200320065
:101af400856ea90001003700856ea800c0818000b2
:101b0400d181800018c0b30002002000031f24000c
:101b140019fb07000000e00001003d000044eb0059
:101b24000804e00002003200754ea90044ff3700ab
:101b3400754ea80042ff37000000fa0006d0bf002f
:101b44000080fb00cf80de00320120000300200073
:101b5400820f5000838f58007f003e000006010072
:101b6400130037001c003700250037003000370011
:101b7400310037003a0037003b003700440037009b
:101b8400450037004f003700500037005a00370037
:101b940071003700700037006f0037006e003700a7
:101ba4006d0037006c0037005500370060003700c7
:101bb4001030ef001230ef0012c0b3006000b80024
:101bc4006b02070022c0b3006000b800680207007f
:101bd40010c0b30006f0b7008280800093808000bc
:101be4008038210001002000800f5100818f5900ae
:101bf4005c00360020c0b30006f0b7005c0037007c
:101c040012c0b30000002000011f2c00580207007e
:101c140022c0b30000002000011f2400540207006a
:101c24006702070030c0b30006f0b7005000370069
:101c3400510007004e00370012c0b300000020001e
:101c4400011f24004a02070022c0b3006000b8004c
:101c54004702070050c0b30006f0b7004400370045
:101c6400450007004200370012c0b3006000b8000e
:101c74003f02070022c0b30000002000011f24001f
:101c84003b02070070c0b30006f0b700380037000d
:101c9400390007003600370012c0b30000002000ee
:101ca40001172c003202070022c0b30000002000fc
:101cb40001172c002e02070090c0b30006f0b700f5
:101cc4002b0037002c0007002900370012c0b30096
:101cd40000002000011724002502070022c0b300e1
:101ce400000020000117240021020700b0c0b30047
:101cf40006f0b7001e0037001f0007001c00370065
:101d04001030ef001230ef0012c0b3006000b800d2
:101d14001702070022c0b3006000b80014020700d5
:101d24002702070030c1b30006f0b70010003700e7
:101d34008280800093808000807020000100200059
:101d4400800f5100818f590008003600a0c0b300f5
:101d540006f0b700060037000670ef000000000030
:101d640003003700000000000100370000000000fd
:101d74000080fa00000006000200fa00881f7800c4
:101d84000040eb00004f7800e0818000f18180008a
:101d940018c0b30002002000031f240074fa0700d7
:101da4000000e000010035000044eb000804e000fe
:101db400010032001e44a000a0818000b181800097
:101dc40018c0b30002002000031f240068fa0700b3
:101dd4000000e000010035000044eb000804e000ce
:101de400010032001e34a0008081800091818000b7
:101df40018c0b30002002000031f24005cfa07008f
:101e04000000e000010035000044eb000804e0009d
:101e1400010032001e24a0006081800071818000d6
:101e240018c0b30002002000031f240050fa07006a
:101e34000000e000010035000044eb000804e0006d
:101e4400010032001e14a000c0818000d1818000f6
:101e540018c0b30002002000031f240044fa070046
:101e64000000e000010035000044eb000804e0003d
:101e7400010032001e04a0001e80fb00cf80de00a3
:101e8400f201200003002000820f5000838f5800cd
:101e940078003e00000601001f00370021003700d3
:101ea400230037002e003700240037002f003700ae
:101eb400370037005a003700230037002e00370060
:101ec40036003700530037003a0037006900370006
:101ed40068003700610037001e0037002900370012
:101ee4003100370048003700350037004300370021
:101ef4006000370056003700340037003c003700dc
:101f0400380037004f003700330037004a003700ed
:101f1400460037005400370020c0b30007f0b70074
:101f24005400370040c0b30007f0b7005100370039
:101f340040c0b30007f0b7004e00370020c1b30023
:101f440007f0b7004b00370060c0b30007f0b700dc
:101f54004800370060c0b30007f0b7004500370001
:101f640040c0b30007f0b7004200370040c0b300e0
:101f740007f0b7003f00370060c0b30007f0b700b8
:101f84003c00370020c0b30007f0b7003900370029
:101f940040c0b30007f0b7003600370020c0b300dc
:101fa40007f0b7003300370040c0b30007f0b700b4
:101fb4003000370060c0b30007f0b7002d003700d1
:101fc40060c0b30007f0b7002a00370060c0b30058
:101fd40007f0b7002700370060c0b30007f0b70070
:101fe40024003700a0c0b30007f0b7002100370079
:101ff400a0c0b30007f0b7001e003700a0c0b300b4
:1020040007f0b7001b00370080c0b30007f0b7002b
:102014001800370080c0b30007f0b7001500370080
:1020240040c0b30007f0b70012003700a0c0b300ef
:1020340007f0b7000f003700a0c0b30007f0b700e7
:102044000c00370020c0b30007f0b70009003700c8
:1020540080c0b30007f0b7000600370080c0b300ab
:1020640007f0b7000300370000c1b30007f0b70062
:102074000000000007d0bf008080fb0006d0bf0036
:102084000080fb000000e900808f50000200320055
:1020940007d0bf0006f0b7004f0478000080fa00b4
:1020a400000006000000fa0005e1a900000020007d
:1020b400812424002c0007000421a9000068a90041
:1020c4002068a80005e1a8000080fa0000000600ce
:1020d4000000fa0013e1a90011e1a9001061a800b1
:1020e4001021a90081088000f0fc2f00008060000e
:1020f400800888000a21ef000621ef00707220009a
:102104007008880000e020006008880021428000f8
:1021140080ff2f00008060000000a00020428800a3
:102124000108a9002108a80011e1a8000080fa0014
:10213400000006000000fa001fe1a90000002000d2
:10214400a14724007c0007001e21a9000368a80001
:102154002368a8001fe1a8001030ef001230ef0040
:102164000080fa00000006000400fa00881f7800ce
:10217400008fbe0021088000f0fc2f00008060006a
:10218400200888001e0178009e019000001c2e008b
:1021940041c62400bbfa070018c0b30002f02f00a8
:1021a400f377240074f907000000e00001003c000c
:1021b4000044eb000804e0005400320021088000d1
:1021c400f0fc2f00008060000040a0002008880080
:1021d4001e0178009e019000001c2e0041c62400c0
:1021e400a8fa07000200200003102400a5fa070043
:1021f40018c0b30002f02f00f37724005ef9070043
:102204000000e00001003c000044eb000804e00092
:102214003200320021088000f0fc2f0000806000b2
:102224000050a000200888001e0178009e01900044
:10223400001c2e0041c6240092fa07000200200070
:10224400032824008ffa070018c0b30002f02f00ff
:10225400f377240048f907000000e00001003c0087
:102264000044eb000804e000100032002108800064
:102274000003200001007000200888001e0178007f
:102284009e019000001c2e0041c624007dfa070028
:1022940002002000033824007afa070038f9070006
:1022a4000000780010088800200037001e01780024
:1022b4009e019000001c2e0041c6240071fa070004
:1022c40002002000032824006efa07002cf90700fe
:1022d4000000780010088800140037001e01780000
:1022e4009e019000001c2e0041c6240065fa0700e0
:1022f400020020000310240062fa070020f90700fe
:102304000000780010088800080037001e017800db
:102314009e019000001c2e0041c6240059fa0700bb
:1023240017f9070000007800100888004f047800af
:102334000080fa00000006000400fa00881f7800fc
:10234400008fbe00f1088000f0fc2f0000806000c8
:10235400f00888001e0178009e019000001c2e00e9
:1023640041c6240047fa070018c0b30002f02f004a
:10237400f377240000f907000000e00001003c00ae
:102384000044eb000804e00054003200f10880002f
:10239400f0fc2f00008060000040a000f0088800de
:1023a4001e0178009e019000001c2e0041c62400ee
:1023b40034fa0700020020000310240031fa070059
:1023c40018c0b30002f02f00f3772400eaf80700e6
:1023d4000000e00001003c000044eb000804e000c1
:1023e40032003200f1088000f0fc2f000080600011
:1023f4000050a000f00888001e0178009e019000a3
:10240400001c2e0041c624001efa07000200200012
:10241400032824001bfa070018c0b30002f02f00a1
:10242400f3772400d4f807000000e00001003c002a
:102434000044eb000804e00010003200f1088000c2
:102444000003200001007000f00888001e017800dd
:102454009e019000001c2e0041c6240009fa0700ca
:10246400020020000338240006fa0700c4f807001d
:1024740000007800d0088800200037001e01780092
:102484009e019000001c2e0041c62400fdf90700a7
:102494000200200003282400faf90700b8f8070016
:1024a40000007800d0088800140037001e0178006e
:1024b4009e019000001c2e0041c62400f1f9070083
:1024c4000200200003102400eef90700acf8070016
:1024d40000007800d0088800080037001e0178004a
:1024e4009e019000001c2e0041c62400e5f907005f
:1024f400a3f8070000007800d00888004f04780093
:102504000080fa00000006000000fa00116080005c
:1025140080ff2f000080600010608800009620007b
:10252400206088001161800000c02000010070005c
:102534001061880023cca80023eca8003000200000
:10254400206188001162800000c02000010070003a
:102554001062880043cca80043eca800300020009f
:102564002062880001eca8000080fa000000060048
:102574000600fa00008fbe00424798004e409000cb
:10258400e14f500005003a001e0178009e019000c2
:102594002281880033818800070037004e40900074
:1025a400e24f500004003a001e0178009e019000a2
:1025b400e2808800f38088000080fa0000000600b2
:1025c4000000fa00889fbe0004818000158180000d
:1025d400e0808000f180800018c0b3000001be00dc
:1025e4000400be0062f807000000e00001003500ae
:1025f4000044eb000804e0000d003200e880800095
:10260400f980800004818000158180006080800052
:10261400718080000001be000400be00b4f8070011
:102624000801be00e50007000081880011818800d0
:102634000481800015818000e0808000f1808000aa
:1026440018c0b3000001be000400be004af8070031
:102654000000e00001003c000044eb000804e0003e
:102664000d003200e8808000f98080000481800041
:102674001581800060808000718080000001be00b0
:102684000400be0091f807000801be00b300070073
:102694000081880011818800008180001181800000
:1026a40018c0b3006011b80033f807000000e00060
:1026b40001003c000044eb000804e0001400320078
:1026c400008180001181800002002000031c24008e
:1026d4004bfa07000002be00408080005180800059
:1026e4000001be000400be0081f8070045f80700a1
:1026f40000007800306188004080800051808000b4
:1027040040f807000000780070618800140037006a
:1027140040808000518080003af807000000780073
:1027240030618800008180001181800001f0a200e6
:1027340002002000031c240031fa07000002be003e
:1027440040808000518080000001be000400be0073
:1027540067f807002bf80700000078007061880014
:102764004481800055818000208180003181800077
:1027740018c0b3000001be000400be00fcf707004f
:102784000000e000010035000044eb000804e00014
:102794000d0032002881800039818000448180004e
:1027a4005581800060808000718080000001be003f
:1027b4000400be004ef807000801be007f000700b9
:1027c40040818800518188004481800055818000c7
:1027d400208180003181800018c0b3000001be0058
:1027e4000400be00e4f707000000e00001003c0024
:1027f4000044eb000804e0000d0032002881800052
:10280400398180004481800055818000608080008f
:10281400718080000001be000400be002bf8070098
:102824000801be004d0007004081880051818800e6
:10283400408180005181800018c0b3006011b8004d
:10284400cdf707000000e00001003d000044eb006c
:102854000804e000140032004081800051818000af
:1028640002002000031c2400e5f907000002be005a
:1028740040808000518080000001be000400be0042
:102884001bf80700dff707000000780030628800bb
:102894004080800051808000daf707000000780053
:1028a40070628800140037004080800051808000ee
:1028b400d4f707000000780030628800408180006f
:1028c4005181800001f0a20002002000031c2400ba
:1028d400cbf907000002be004080800051808000d8
:1028e4000001be000400be0001f80700c5f70700a0
:1028f40000007800706288004f04be000080fa0077
:10290400000006000400fa00881f7800008fbe0053
:1029140018c0b3006011b8001e0078009e0090003b
:1029240095f707000000e00001003d000044eb00c3
:102934000804e000030032001e0078009e009000ae
:10294400030037001e0078009e00900001f0a200f2
:102954004f0478000080fa00000006000800fa0026
:10296400881f7800008fbe00220798003307980064
:1029740018c0b3002e019000be0190001e00780024
:102984009e0090007cf707000000e00001003c007e
:102994000044eb000804e000030032001e0078004d
:1029a4009e009000020037002e009000be009000b0
:1029b4004f0478000080fa00000006000800fa00c6
:1029c400881f7800008fbe00220798003307980004
:1029d40018c0b3002e019000be0190001e007800c4
:1029e4009e00900062f707000000e000010035003f
:1029f4000044eb000804e000030032001e007800ed
:102a04009e009000020037002e009000be0090004f
:102a14004f0478000080fa00000006000c00fa0061
:102a2400881f7800008fbe002207980033079800a3
:102a3400440798005507980018c0b3004e01900051
:102a4400de0190001e0078009e0090004af7070007
:102a54000000e00001003c000044eb000804e0003a
:102a6400040032004e019000de019000028fbe008f
:102a74000e00370018c0b3002e019000be01900074
:102a84001e0078009e00900039f707000000e00067
:102a9400010035000044eb000804e00003003200ac
:102aa4002e019000be019000028fbe001e0078002f
:102ab4009e0090004f0478000080fa000000060099
:102ac4000400fa00008fbe00b2fd2000930424002d
:102ad4001e0078009e0090006af8070002002000a3
:102ae4004333240046f907000080fa000000060082
:102af4000400fa00008fbe00b2fd200093042400fd
:102b04001e0078009e0090003df90700020020009e
:102b1400433324005bf807000080fa00000006003d
:102b24000000fa00413a800000fc2f0000806000a1
:102b34007001b300403a8800313a800000e02f0071
:102b4400808060008005200001007000303a880019
:102b5400213a8000f0f32f0000806000203a8800c2
:102b6400213a800000fe2f00008060000000a000d9
:102b7400203a88001200200080072000a1092000cc
:102b840033742000804978008149780082497800b4
:102b9400103a8000000178000200a00060042000c8
:102ba4007105200023742000804978008149780051
:102bb4008249780000000000113a800000002700dc
:102bc4008080600000002100808f5000faff3a00ee
:102bd4005927a800c13a800080ff2f0000806000c0
:102be4000000a000c03a8800d03a80007000b30012
:102bf400d03a8800c13a8000f0f12f008080600054
:102c0400000c200001007000c03a880059a7a800f9
:102c140059e7a80000000000c13a80000000240029
:102c2400008060000000e000fbff320000000000b4
:102c3400113a800000022000008060000000e000e3
:102c4400fbff32000080fa00000006000000fa00da
:102c540021e3a9002143a80001198000f0cf2f002f
:102c640000806000001988002043a9000119800039
:102c7400000e200001007000001988001119800066
:102c8400f0ff210000806000101988002343a80091
:102c940011198000f0cf2f00008060001019880007
:102ca4001119800030f82f00008060000040a0005f
:102cb400101988002203a9002223a90025e3a900f2
:102cc400f0c0b30024e3b70021198000f00f2e00f8
:102cd4008080600000f0200001007000201988004e
:102ce4003303a9001f0ea8001f2ea8001f4ea80022
:102cf4001f6ea8001e0ea8003103a8003123a800ef
:102d04003143a8003163a8003003a80041198000b2
:102d140000fe2f00008060004019880028e3a9000d
:102d240001a8a90021a8a80021e3a8000080fa00b6
:102d3400000006000000fa002023a8000080fa002a
:102d4400000006000000fa00000421000080fa00e0
:102d5400000006000000fa0017d0bf000080fa004f
:102d6400000006000000fa001770ef000080fa006f
:102d7400000006000000fa000e2eef001e2eef00e9
:102d84003e2eef002e2eef004e2eef006e2eef00a3
:102d940080cea90080aea900808ea900816ea90012
:102da400714ea9000c000700020007000080fa0021
:102db400000006000000fa002174200062042000d4
:102dc40073052000824878008348780042c7a80031
:102dd4000080fa00000006000000fa0021742000c0
:102de400620420007305200082487800834878003c
:0c2df40042c7a9000080fa0000000600a1
:020000040000fa
:102e0000001000000800000080000000101000000a
:102e100006000000800000001a10000026000000dc
:102e20008000000008100000080000008200000080
:102e30000000480042000000a040000040100000d8
:102e40000a000000800000001610000002000000d0
:102e50008000000018100000020000008000000048
:042e6000000000006e
:020000040000fa
:0200000401f009
:04000800cfffff0027
:020000040000fa
:0200000401f009
:04000c00f9ffff00f9
:020000040000fa
:0200000401f009
:040010005bffff0093
:020000040000fa
:0200000401f009
:040014007fffff006b
:020000040000fa
:0200000401f009
:04001800cfffff0017
:020000040000fa
:0200000401f009
:04001c00deffff0004
:020000040000fa
:0200000401f009
:04002000cfffff000f
:00000001FF
